:0804D200C200C201C202C20314
:2004E700AF822004058F82025BA078027901C3E3F5F0E295F0501A7802E2FE780204F290E3
:2005070000BBE0FCA3E0FDEE2CF582E43DF583EFF022AF83E5829000BEF0EFA3F09000BEEB
:20052700E0FEA3E0FF9000BBEEF0EFA3F07802E4F29000BDE07801F2D20422C2047802E2A7
:20054700F58222AD82AE83AFF08D828E838FF0126B65FC700122BC250280030207B9C203FF
:20056700C202C201C2000DBD00010E8D828E838FF0126B65FBBB6802800CBB6C10D2000D0F
:20058700BD000A0E8007D2020DBD00010E8D828E838FF0126B65FBBB63028030BB6402805E
:2005A70018BB6F02802BBB7302800ABB7502800EBB78238010D201801D75080A80187508D9
:2005C7000AD2038011750810D203800A7508008005750808D203300171A8811818E624FD5A
:2005E700FBA8811818A6038B01870909870A09870B1919C005C006C007AA09AB0AAF0B8A76
:20060700828B838FF0126B65D007D006D00570030207CAC005C006C007AA09AB0AAF0B8A1C
:20062700828B838FF0126B65FA0509E4B50902050A8A82C007C006C0051204E7D005D00601
:20064700D007D007D006D00580A9300366300021A8811818E624FCFBA8811818A6038B013F
:20066700870C09870D09870E09870F19191902072030021DA8811818E614F9A8811818A6F8
:200687000187038B0C750D00750E00750F00020720A8811818E624FEFBA8811818A6038B96
:2006A700018702098703198A0C8B0D750E00750F008066300020A8811818E624FCFBA8810F
:2006C7001818A6038B01870C09870D09870E09870F191919804330021EA8811818E614FB95
:2006E700A8811818A6038B01E7FBF50C3395E0F50DF50EF50F8022A8811818E624FEFBA82B
:20070700811818A6038B018702098703198A0CEBF50D3395E0F50EF50FE50870030207A478
:2007270030032F9005A67477F0E4A3F07440A3F09005A9E508F0850C82850D83850EF0E5D1
:200747000FC007C006C005125F71D005D006D007802D9005CF7477F0E4A3F07440A3F09093
:2007670005D2E508F0850C82850D83850EF0E50FC007C006C005126087D005D006D00779D9
:2007870077E7FB603E8B82C007C006C005C0011204E7D001D005D006D0070980E4AB0C8B3C
:2007A70082C007C006C0051204E7D005D006D00780118C82C007C006C0051204E7D005D04C
:2007C70006D0070DBD00010E020550E58124FCFFC007E58124FBF886820886830886F01293
:0507E700054A15812206
:2007EC00AF827E007D00AB10AC118F021FEA603B8B828C83E0FAA3AB82AC83ED2DF9ED30EF
:20080C00E714890009E8906D75936EFDE9906D7593F86AFE80D4890009E8906C7593F86E61
:1B082C00FDE9906C7593F96AFE80BF8D07E4FDFCEE4205EC42078D828F832209
:206C75000000102120423063408450A560C670E781089129A14AB16BC18CD1ADE1CEF1EFFF
:206C9500123102103273225252B5429472F762D693398318B37BA35AD3BDC39CF3FFE3DEBF
:206CB500246234430420140164E674C744A45485A56AB54B85289509E5EEF5CFC5ACD58D7F
:206CD500365326721611063076D766F6569546B4B75BA77A97198738F7DFE7FED79DC7BC3F
:206CF50048C458E5688678A70840186128023823C9CCD9EDE98EF9AF89489969A90AB92BFF
:206D15005AF54AD47AB76A961A710A503A332A12DBFDCBDCFBBFEB9E9B798B58BB3BAB1ABE
:206D35006CA67C874CE45CC52C223C030C601C41EDAEFD8FCDECDDCDAD2ABD0B8D689D497E
:206D55007E976EB65ED54EF43E132E321E510E70FF9FEFBEDFDDCFFCBF1BAF3A9F598F783E
:206D7500918881A9B1CAA1EBD10CC12DF14EE16F108000A130C220E35004402570466067FE
:206D950083B99398A3FBB3DAC33DD31CE37FF35E02B1129022F332D24235521462777256BE
:206DB500B5EAA5CB95A88589F56EE54FD52CC50D34E224C314A0048174666447542444057E
:206DD500A7DBB7FA879997B8E75FF77EC71DD73C26D336F2069116B066577676461556343E
:206DF500D94CC96DF90EE92F99C889E9B98AA9AB584448657806682718C008E1388228A3FE
:206E1500CB7DDB5CEB3FFB1E8BF99BD8ABBBBB9A4A755A546A377A160AF11AD02AB33A92BD
:206E3500FD2EED0FDD6CCD4DBDAAAD8B9DE88DC97C266C075C644C453CA22C831CE00CC17D
:206E5500EF1FFF3ECF5DDF7CAF9BBFBA8FD99FF86E177E364E555E742E933EB20ED11EF03D
:20084700AF829002BEE0F56F7CFF7DFF7406256FFBFA24BDF582E43402F583EFF00A780483
:200867007401F27804C3E29A5065C0027804E224BDF582E43402F583E0FB8C71757200E5EC
:2008870071F5736BF570C454F0F57462708D75757600AB707E008B077A00E5756202E576BA
:2008A7006207EEC40354F8CBC403CB6BCB54F8CB6BFEEB6202EE6207E570C4540FFE7B0019
:2008C7006AFCEB6FFD7804E22401F2D00280947406256F24BDF582E43402F5838C06EEF091
:2008E7007407256F24BDF582E43402F5838D04ECF022AF828F6F8F047D007805E27B002C24
:20090700FCEB3DFDAA6F7B00C3EA9CEB64808DF063F08095F05032E56F24BDFCE43402FD64
:200927008C828D83E0F570E56F0424BDFAE43402FB8A828B83E0FE8C828D83F08A828B83E5
:20094700E570F0056F056F80AD229002BD74FEF09002BE7409F07803E2FF780304F2900247
:20096700BFEFF09002C07433F09002C17444F09002C274A6F07896E2FE08E2FF9002C3EE76
:20098700F0EFA3F078A0E2FE08E2FF9002C575F000EE126476A3EF126476125B65AF829056
:2009A70002C975F000EF1264767582151208471257F9AE82AF83C3EE9411EF9400500122A8
:2009C70078B77411F29002BD1256DA9002C2746DF07582B91208471257F9AE82AF83C3EE2E
:1309E7009411EF940050012278B77411F29002BD0256DA3B
:2009FA00AE82AF83E0FDBDFE1A8E828F83A3E0FDBD091074052EFEE43FFF8E828F83E07018
:200A1A0002D20A22E5827810F2125B117811E582F208E583F27B007C00781374FFF208F238
:200A3A007811C3E2940808E294005003020B148B828C83C004C003125964858228D003D09C
:200A5A000474FEB528028003020B1474012BFEE43CFF8E828F83C004C0031259648582281F
:200A7A00D003D004740925285003020B14C003C004AD287E0074082DFAE43EFC7810E2F57D
:200A9A00298E2A7806E2FB7F00E529C39BFBE52A9FFFC3EB9AEF64808CF063F08095F0D0AE
:200ABA0004D003405574082DFDE43EFE7811C3E29D08E29E404474062BFEE43CFF8E828FB2
:200ADA0083C004C003125964AF82D003D004BF460C7412B528077813EBF208ECF2740825E1
:200AFA0028F528AA287F007811E2C39AF208E29FF2EA2BFBEF3CFC020A3A7813E2F58208A8
:200B1A00E2F58322E5829002B8F0E4F52DF52E780A79B8E2F39001BC12599C780AE2FD78C0
:200B3A0006F27815E2FA08E2FB7C009005E874BCF07401A3F0E4A3F09005EBEDF0E4A3F0E9
:200B5A008A828B838CF01263D6780AE4F27815E2F58208E2F5831209FA900594E0FDBD0220
:200B7A000F9002B8E0F582120A1EAC82AD8380047CFF7DFF8C2F8D30125B1185822B858368
:200B9A002C9002B8E0F53474FFB52F0974FFB5300474018001E4FCC3E52B9408E52C940016
:200BBA005003020CF1C00412590D858231D00474FEB5310280067806E2F58222C004125979
:200BDA0029858231D004740925315003020CF1C00485313275330074082532FBE43533FE35
:200BFA00AA347F007806E2FC7D00EAC39CFAEF9DFFC3EA9BEF64808EF063F08095F0D00412
:200C1A005003020CF174082532FEE43533FFC3E52B9EE52C9F5003020CF1EC7028E52DB58E
:200C3A002F07E52EB53002801C900006C004125964AF82D004BF460D7412B5310874082579
:200C5A0031F531807074082531F5317806E224BCFEE43401FF78B8E531F28E828F83C004C7
:200C7A0012599C78157906E3C5F0E225F0FE08E23400FF7D007806E224BCFAE43401FB9042
:200C9A0005E8EAF0EBA3F0E4A3F09005EBE531F0E4A3F08E828F838DF01263D6781579068B
:200CBA00E3C5F0E225F0FE08E23400FF8E828F831209FAD0047806E22531F2AE317F00E57A
:200CDA002BC39EF52BE52C9FF52CEE252DF52DEF352EF52E020BB17806E2F58222858235B3
:200CFA00125B118582368583372008163025652005627806E2605DC3E5369420E537940002
:200D1A0050527806C3E2F5F0E53595F050087806E4F275820022D205C2087817E2FA08E2B5
:200D3A00FB7C009005E874BCF07401A3F0E4A3F078069005EBE2F0E4A3F08A828B838CF029
:200D5A001263D67806E2F5367537007806E4F2AB368B8222C205200903020E267806E2FB0F
:200D7A007C008B368C378535388C39C3E5389536E539953750657817E2FA08E2FE7F0090F6
:200D9A0005E874BCF07401A3F0E4A3F09005EBE538F0E539A3F08A828E838FF01263D6E5A3
:200DBA003524BCFEE43401FF9005E8EEF0EFA3F0E4A3F0AE357F009005EBE536C39EF0E567
:200DDA00379FA3F09001BC75F0001263D6E536C395357806F2D206853582227817E2FD08CF
:200DFA00E2FE7F009005E874BCF07401A3F0E4A3F09005EBEBF0ECA3F08D828E838FF012D3
:200E1A0063D6C209D2067806E2F58222C206AE357F00C3EE9536EF953750048E368F37782C
:200E3A0006E4F2E53645377003F58222900594E07053E53645376043AD3678B8EDF2781792
:200E5A00E2F58208E2F583C00512599CD005502B78179005E8E2F008E2A3F0E4A3F090053A
:200E7A00EBE536F0E537A3F09001BC75F000C0051263D6D0057806EDF280047806E4F2786F
:200E9A0006E2F58222780AE2B401028003020F347401B53606E4B5370280028079125D3979
:200EBA00AE82AF83780BD3E29EF4B3FEB308E29FF4FF780DC3E29E08E29F50567806E2FFB6
:200EDA00780604F2EF24BCFFE43401FEC007C00612585CAD82D006D0078F828E83EDF078F9
:200EFA0017E2FD08E2FE7F009005E874BCF07401A3F0E4A3F078069005EBE2F0E4A3F08D8B
:200F1A00828E838FF01263D6780AE4F27806E2F5822275820022780AE4F2780AE2700302BF
:200F3A000FC3780AE2FE7F00C3E5369EE5379F5068125D39AE82AF83780BD3E29EF4B3FE70
:200F5A00B308E29FF4FF780DC3E29E08E29F5045AD3678B8EDF29001BCC00512599CD00582
:200F7A007806EDF27817E2FC08E2FE7F009005E874BCF07401A3F0E4A3F09005EBEDF0E4C9
:200F9A00A3F08C828E838FF01263D6780AE4F27806E2F582227582002278177915E2F30857
:200FBA00E209F3853582020B1EE5364537700302116412590DAF82BFFE02800302113574AA
:200FDA0001B53606E4B537028002802E7806E26003021164780A7401F2125D39E5828583C9
:200FFA00F0780BF208E5F0F27808E2FE08E2FF780DEEF208EFF275820022125929AF8278B6
:20101A000AEFF2BFF70050208F057E0074082DFDE43EFE780FE2FB7C00C3EB9DEC64808E44
:20103A00F063F08095F05033780AE4F27806E2FE780604F2EE24BCFEE43401FDC006C00534
:20105A0012585CAC82D005D0068E828D83ECF0153674FFB536021537020FC374082FFF78EE
:20107A000AF27806E260627817E2FC08E2FD7E009005E874BCF07401A3F0E4A3F07806903C
:20109A0005EBE2F0E4A3F08C828D838EF01263D6125D39E5828583F0780BF208E5F0F27853
:2010BA000AE2FD7E0078089005F3E2F008E2A3F08D828E831264C1E5828583F0780DF20823
:2010DA00E5F0F27806E2F582227E00C3E5369FE5379E5037125D39E5828583F0780BF20876
:2010FA00E5F0F2780AE2FE7F0078089005F3E2F008E2A3F08E828F831264C1E5828583F01F
:20111A00780DF208E5F0F27582002278177915E2F308E209F3853582020B1E7806E2FF7840
:20113A000604F2EF24BCFFE43401FEC007C00612585CAD82D006D0078F828E83EDF015363B
:20115A0074FFB536021537020FC37817E2FD08E2FE7F009005E874BCF07401A3F0E4A3F004
:20117A0078069005EBE2F0E4A3F08D828E838FF01263D67806E2F58222A20522A20622D2C6
:20119A000822E5829002B9F0E0780FF222AF83E5829002BAF0EFA3F09002BAE0FEA3E0FFEB
:2011BA009005D9EEF0EFA3F0E4A3F0A3F090000075F001E4126270AC82AD83AEF0FF0CBCBC
:2011DA0000090DBD00050EBE00010F7808ECF208EDF222E5829002BCF0200B397819E2FD61
:2011FA0008E2FE7F009002BCE0FCFA7B009005E8EDF0EEA3F0EFA3F09005EBEAF0EBA3F09A
:20121A009000C075F000C0041263D6D0047807ECF2C207C3222007379002BCE0FF7807E225
:20123A00B5072C7819900608E2F008E2A3F0E4A3F090060BEFF0E4A3F09000C075F00012F9
:20125A0066F7E5828583F045F07004C207D322D207C322AF82BF130050259000BD74FCF06E
:20127A009001BCC007120519D0078F8212499B120542AF827806EFF2EF6004C205D2092232
:20129A00D2189000BD74FCF09001BC120519122EC9120542AF827806EFF2EF6004C205D242
:2012BA000922AE82AF83781BC3E2F5F074FC95F05005781B74FCF29005E8EEF0EFA3F0E46A
:2012DA00A3F0781B9005EBE2F0E4A3F09001BC75F0001263D6781BE27806F2C205D209225F
:2012FA007F00784CE224FFFD08E234FFFE8F037C00C3EB9DEC9E40030213B8BF0800400377
:20131A000213B87861E2B5030808E2B504030213B4EF75F002A4FDAEF0C007ED2484F53ED8
:20133A00EE3405F53F853E82853F83A3E0FF8F407541007861E2FA08E2CA25E0CA33FFEA51
:20135A002474FAEF3405FF8A828F83A3E0FF8F42754300853E82853F83E0FF7A00ED247427
:20137A00F582EE3405F583E0FE7D00C007C040C041C042C043C007C002C006C005C003C07E
:20139A00047475C0E0746EC0E07480C0E01207D2E58124F3F581D007D0070F0212FC783637
:2013BA00E2FE7F00C007C006124044AC82AD83D006D00778A0E2F54208E2F543789EE2F546
:2013DA004008E2F541789CE2F53E08E2F53F789AE2F54408E2F5457896E2F54608E2F547AA
:2013FA007898E2FA08E2FBC006C007C004C005C042C043C040C041C03EC03FC044C045C020
:20141A0046C047C002C0037841E2C0E008E2C0E07861E2C0E008E2C0E0749DC0E0746EC0E3
:20143A00E07480C0E01207D2E58124E9F5817841E4F208F2227840E2540160030212FA221D
:20145A00AF827E0078319005F3E2F008E2A3F08F828E831264C1AE82AF83782FE22EFE08CB
:20147A00E23F8E82F58322AE82AF837833C3E29E08E29F50087833E4F208F2800A7833E2C4
:20149A00C39EF208E29FF27823C3E2F5F0EE95F008E2F5F0EF95F05003021781781DC3083C
:2014BA00E29480400B7861E2F5F008E245F0706F781DE2FC08E2FD781D74012CF2E43D0888
:2014DA00F2784C900603E2F008E2A3F08C828D83C007C00612664AAC82AD83D006D0077864
:2014FA0061E2B5040708E2B5050280028031781CE4F2784C900603E2F008E2A3F0781DE269
:20151A00F58208E2F583C007C00612664AE5828583F0D006D007781DF208E5F0F2804F78E0
:20153A001DC308E294805041784C900603E2F008E2A3F0900001C007C00612664AAC82ADBB
:20155A0083D006D007781DE2C39CFC08E29DFD784CE224FFFA08E234FFFBECB5020BEDB5C0
:20157A000307781C7402F28005781C7401F27823D3E29EF4B3FEB308E29FF4FF781CE2B4DF
:20159A0002107827E2FC08E2FD7823ECF208EDF280197825E2FC08E2FD7823ECF208EDF200
:2015BA00C007C00612344BD006D007C007C00612381ED006D007785AC3E2F5F0740195F04E
:2015DA00500B783AE4F208F2783EF208F2781CE26003021778C006C0077835E2FC7D0078FB
:2015FA0036E2F5488D49ECC39548FEED9549FFBE640ABF0007D007D006021778D007D00675
:20161A00C006C007C007C006C005C004C03AC03BC03CC03D90333375F073743F12619F8507
:20163A00824A85834B85F04CF54DE58124FCF581D004D005D006D0077837E2F58208E2F535
:20165A0083C005C004126965AA82AB83AEF0FFD004D005C007C006C005C004C002C003C089
:20167A0006C00790000075F0A0744012619F85824E85834F85F050F551E58124FCF581D0A5
:20169A0004D005D006D007782A7925E3C5F0E225F0FE09E3C5F008E235F0CE25E0CE33FF5A
:2016BA008E828F83C005C004126965AA82AB83AEF0FFC002C003C006C007854E82854F83D0
:2016DA008550F0E551126AA2AA82AB83AEF0FFE58124FCF581D004D005C007C006C005C029
:2016FA0004C002C003C006C007854A82854B83854CF0E54D1267D685823A85833B85F03C9F
:20171A00F53DE58124FCF581D004D005D006D0077837E4F208F2ECC39548FCED9549FD8CD0
:20173A00828D8312691DAC82AD83AEF0FFC007C006C004C005C006C007853A82853B8385BE
:20175A003CF0E53D126491E58124FCF581D006D007E58224FF9215B39213D007D006783390
:20177A00E4F208F20214A1781CE2B40210C007C00612342412391FD006D007800EC007C069
:20179A000612341412391FD006D0077823E2C39EF208E29FF222AF82781CE2B40224EF706B
:2017BA00217861E2F5F008E245F07004758201227861792CE24400F308E2448009F3758269
:2017DA000022781CE270030219DA100D00EF600302186F781DE2F5F008E245F06046782C32
:2017FA00E254FFFE08E2547FFF781DE224FFFC08E234FFFD784CE224FFFA08E234FFFB90C5
:20181A000603EAF0EBA3F08C828D83C007C00612664AAC82AD83D006D007EEB50406EFB584
:20183A0005028029781DE2F5F008E245F07022782CE254FFFE08E2547FFF784CE224FEFC7A
:20185A0008E234FFFDEEB50408EFB505047582012275820022784EE270030219C8782CE241
:20187A0054FFFE08E2547FFF7848E2FC08E2FDEEB50406EFB505028002D20F782CC308E2B0
:20189A0094805079782CE22401FE08E23400FF784CE224FFFA08E234FFFB900603EAF0EB52
:2018BA00A3F08E828F83C005C00412664AAE82AF83D004D005ECB50644EDB50740782CEC9F
:2018DA00F208EDF2126124AE82AF83782FE2FA08E2CA25E0CA33FB900603EAF0EBA3F08E69
:2018FA00828F8312664AAE82AF83782FE22EFE08E23FFF7833EEF208EFF2021995782CEC85
:20191A00F274804D08F278619005F3E22401F008E23400A3F0782FE2F58208E2F58312649F
:20193A00C1AE82AF83C007C006126124AC82AD8378619005F3E22402F008E23400A3F07866
:20195A002FE2F58208E2F583C005C0041264C1AA82AB83D004D005900603EAF0EBA3F08C43
:20197A00828D8312664AAC82AD83D006D007EC2EFEED3FFF7833EEF208EFF2782FE2FE08A8
:20199A00E2CE25E0CE33CE25E0CE33FF900603EEF0EFA3F07833E2F58208E2F58312664A83
:2019BA00E5828583F07833F208E5F0F2800E7861792CE24400F308E2448009F3758200225A
:2019DA00781CE2705A300D0C782CE4F2087480F275820022300E107861792CE24400F308F6
:2019FA00E2448009F3800E7861E2FE08E2FF782CEEF208EFF2100F028021782F9005F3E2BB
:201A1A00F008E2A3F09000061264C1E5828583F07833F208E5F0F2758200227582012275FF
:201A3A00820122123C3EE582FF24EB40057836E4F222124044E5828583F0249CFEE5F0343F
:201A5A00FFFFC3E49E74808FF063F08095F0E433FD700C7836E260077836E214F28037C3C7
:201A7A00740A9E74808FF063F08095F050087836E2240AF28020C374059E74808FF063F01D
:201A9A008095F050087836E22405F28009ED60067836E22401F27835E2FE7F007836E2FC09
:201ABA007D00EEC39CFEEF9DFFC3EE9414EF64809480500878357936E224ECF3227861E203
:201ADA00F5F008E245F0600330110E9003CAE4F0C211D21B12347F80079003CAE02401F0A7
:201AFA009003CAE0FFBF02005004C2958045782EE4F2A2109295B210781D74FFF208F290C4
:201B1A0005E5E4F09005E67410F0E4A3F090058475F0001263AE9005E5E4F09005E6741099
:201B3A00F0E4A3F090057475F0001263AE7841E4F208F29003CAE0FF24FC502930120F756F
:201B5A00F005EF84AFF0BF041012344B800BC21B12347F12342412391F9003CAE0FF24C3DC
:201B7A00500343EF107843E4F208F2300C077857E2FF7840F2B20C9003CBE02401F0E0FF9E
:201B9A00BF0408121A3D9003CBE4F022AE82AF839003CC75F000C007C006126A8AE58285FE
:201BBA0083F02401FCE435F0FD9005E874CCF07403A3F0E4A3F09005EBECF0EDA3F09003D4
:201BDA00B975F0001263D6D006D007784AEEF208EFF2D21422AF82BF02004017EF24EF40B7
:201BFA00129002BDE0FEBE520A9002BEE0FEBE540280237E00C3EE9F501BEE24BDF582E42A
:201C1A003402F583E0F582C007C006125BA0D006D0070E80E0227848794AE2F308E209F390
:201C3A009005E874BDF07402A3F0E4A3F09005EBEFF0E4A3F09003CC75F000C0071263D6C0
:201C5A00D007EF24CCF582E43403F583E4F09003CC7441F07855EFF2BF041B9003CEE0FF06
:201C7A00BF49139003CFE0FFBF350B78457401F275820002126D02129A125D39AE82AF839B
:201C9A00784FEEF208EFF278FF762A78FFB62A02801DC007C00674E1C0E0746EC0E0748095
:201CBA00C0E0124B2B158115811581D006D0077854E2B44102801DC007C00674EEC0E0742E
:201CDA006EC0E07480C0E0124B2B158115811581D006D007C007C006122EC9D006D0077896
:201CFA0040E2600FC007C00612144FD006D0077840E4F2300A16900594E0601020170DC22D
:201D1A000AC007C006120951D006D007C007C006125D397852E582F208E583F2786F74BD27
:201D3A00F2087402F290005175F060123484D006D00740030220497833E4F208F27851E236
:201D5A00B40400502A7851E2FC7D00C007C006C004C0057404C0E0746FC0E07480C0E012BC
:201D7A0007D2E58124FBF581D006D007021CA5781CE2700AD20D782CE4F2087480F2785105
:201D9A00E224BDFCE43402FDEC24FCFCED34FFFD9005E8ECF0EDA3F0E4A3F09005EB7404E6
:201DBA00F0E4A3F090004675F060C007C0061263D6D006D0077851E214141414F27848E2F3
:201DDA00F55208E2F55330E73B782EE2B4FF005011781DE2F5F008E245F07006782EE224E5
:201DFA0001F2781DE4F208F27848E2FC08E2FD53057F8C82C007C006123440D006D007D275
:201E1A0011021CA530123F7847E220E639782EE2B4FF00501E74012552FCE43553FD781DE4
:201E3A00E2B5040708E2B5050280028006782EE22401F27848E2FC08E2FD781D74012CF2EC
:201E5A00E43D08F2D2117848E2FC08E2FDC3EC9408ED9400507CC006C007EDCC25E0CC3303
:201E7A00FDEC2474FCED3405FDC006C005C00412357BAF82D004D005D0067E007848E2FACD
:201E9A0008E2CA25E0CA33FBEA2474F582EB3405F583E09005F3F0E4A3F0900007C007C0F5
:201EBA0006C005C0041264C1AA82AB83D004D005D006D007EA2FFAEB3EC423CAC423541F4B
:201EDA006ACA541FCA6ACAFB8C828D83EAF0D007D0067841E22401F208E23400F27846E241
:201EFA00FC08E2541FFD4C6003021F937851E27003021F937851E2B404717848E2FC08E2E1
:201F1A00FDC3EC9408ED940050617851E21414F27851E224BDFAE43402FB8A828B83E0FAD9
:201F3A00A3E0FB7861E2B5020708E2B5030280028039EDCC25E0CC33FDEC2484FCED340541
:201F5A00FD7B009005E874BDF07402A3F0E4A3F078519005EBE2F0E4A3F08C828D838BF0A6
:201F7A00C007C0061263D6D006D0077841E224FFF208E234FFF2021CA57846E2FC08E25466
:201F9A001FFD4C7003021CA57846E2FC08E2541FFD7823ECF208EDF27851794EE27003044A
:201FBA008001E4F37582011217B07852E2FE08E2FF7847E2C4035401FDBD01227851C3E243
:201FDA00F5F0740195F04003021CA57851E2F582C007C006121BEFD006D007021CA57851FE
:201FFA00E27003021CA57847E223540124FF920B781974BDF2087402F27851E2F582C007C9
:20201A00C0061211EDD006D0075003021CA5301703021CA5C296785179B7E2F39002BDC0CB
:20203A0007C0061256DAD006D007D296021CA5C007C006125D397852E582F208E583F2D015
:20205A0006D0077852E2C39EFC08E29FFD8C828D83C005C004121481D004D0057852E2FE59
:20207A0008E2FF7825792AE3F5F0C3E295F0FA09E3F5F008E295F0FB7823C3E2F5F0EA9552
:20209A00F008E2F5F0EB95F05003021CA5781CE2B4022A7827792AE3F5F0C3E295F0FA0954
:2020BA00E3F5F008E295F0FB7823C3E2F5F0EA95F008E2F5F0EB95F05003021CA5C006C065
:2020DA00077852794FE3F5F0C3E295F0FA09E3F5F008E295F0FB7E007F00C3E49A74809B59
:2020FA00E49E74808FF063F08095F0D007D006501DC007C006C005C004121AD7D004D0059D
:20211A00D006D0077852794FE2F308E209F37839E270030221BAC007C006C005C00412356B
:20213A0081AB82D004D005D006D0077839C3E2F5F0EB95F0500B783AE22CF208E23DF28030
:20215A003E783AE4F208F2783EE2F5F008E245F0702DC007C006126124AC82AD83783C90A6
:20217A000603E2F008E2A3F08C828D8312664AE5828583F0D006D007783EF208E5F0F27812
:20219A003C793EE3C5F0E225F0FC09E3C5F008E235F0FD783AC3E29C08E29D5003021CA56A
:2021BA00784EE4F2758200C007C0061217B0E582D006D0077003021CA57833E2F5F008E266
:2021DA0045F06003021CA5C007C006123564D006D007400DC007C00612354BD006D007503C
:2021FA0023782FE2FC08E2FD7833ECF208EDF2781CE26003021CA5D20D782CE4F2087480D5
:20221A00F2021CA57861E2F5F008E245F0600B782EE2B414005003021CA5C006C0077861F9
:20223A00E2FC08E2CC25E0CC33FDEC2474FCED3405FD0CBC00010DC007C006C005C004124E
:20225A003581AB82D004D005D006D0077A007861E2FE08E2CE25E0CE33FFEE2474FEEF3494
:20227A0005FF8E828F83A3E09005F3F0E4A3F0900003C005C004C003C0021264C1AE82AFF5
:20229A0083D002D003D004D005EE2BFEEF3AC313CE13CEC313CE13CE8C828D83EEF0D00736
:2022BA00D006301303021CA57823792FC3E3F5F0E295F009E3F5F008E295F05003021CA59A
:2022DA007823E2FC08E2FD782FE2FA08E2CA25E0CA33FBECC39AFCED9BFD30E7047D00806E
:2022FA0036782FE2FB08E2CB25E0CB33FC7823E2C39BFB08E29CFC7831900597E2F008E26D
:20231A00A3F08B828C83C007C006125D96AB82AC83D006D0078B05BD05005003021CA5ED04
:20233A0024FBFD7829C3E29D50047829E2FDC007C006C005125B11E5828583F0D005D006D6
:20235A00D00745F06042300F3F781CE2B401397825E2FB08E2C313CB13CBC313CB13CBFC75
:20237A007823C3E29B08E29C5003021CA59002BD74FFF078517401F27847E24420F278215A
:20239A0074FFF208F202248F781CE2B4020302248B20140302242EC006C0079003B975F066
:2023BA0000C007C006C005126A8AAB82AC83D005D006D0078D027F00C3EA9BEF9CD007D045
:2023DA000640519003B975F000C007C006C005126A8AAB827851EBF29005E874B9F074035F
:2023FA00A3F0E4A3F09005EBEBF0E4A3F09002BD75F0001263D6D005D006D0077847E24481
:20241A0020F2784AE2FB08E2FC7821EBF208ECF2C2148061781774BDF2087402F28D82C007
:20243A0007C006C005120CF7E5827851F2121196D005D006D0079216E433FC784713E2927D
:20245A00E5F27847E230E52D784AE2FB08E2FC7821EBF208ECF27845E2FC784504F28C826B
:20247A00C007C006C00512126DD005D006D00780047851E4F278517929C3E2F5F0E395F05D
:20249A005021C007C006C0057419C0E0746FC0E07480C0E0124B2B158115811581D005D02C
:2024BA0006D007781CE2B40103D38001C39216E433784713E292E6F2C007C006C00512118E
:2024DA0093D005D006D0079216E433FC784713E292E7F2781CE260030226517851E2600393
:2024FA00022651BD12005003022651784CE224FFFC08E234FFFD7843C3E29C08E29D400309
:20251A000226517861C3E2940808E294004003022651782FE2FC08E2CC25E0CC33FD7825FB
:20253A00E2C39CFC08E29DFD7823C3E29C08E29D400302265178437961E2F5F0E3B5F00BB2
:20255A0008E2F5F009E3B5F0028002800B7843E22401F208E23400F278517402F27843E260
:20257A00FC08E2CC25E0CC33FDEC2474FCED3405FD0CBC00010D7861E2FA08E2CA25E0CADD
:20259A0033FBEA2474FAEB3405FB8A828B83A3E08C828D83F07843E2FC08E2CC25E0CC335A
:2025BA00FDEC2474FCED3405FD9005E8ECF0EDA3F0E4A3F09005EB7402F0E4A3F09002BD65
:2025DA0075F000C007C0061263D69005E87443F0E4A3F07460A3F09005EB7402F0E4A3F045
:2025FA009002BF75F0001263D6D006D00778517404F27843E22401F208E23400F2784379E8
:20261A0061E2F5F0E3B5F00B08E2F5F009E3B5F0028002800B7843E22401F208E23400F2B2
:20263A007846E4F208E254E0F27847E2547FF27847E254DFF28053781CE2601E7851E270CE
:20265A0019781CE2B402028003021CA57861E2F5F008E245F06003021CA57851E22404F526
:20267A0082C007C00612145AAC82AD83D006D0077823E2C39CFC08E29DFD7846ECF208EDB9
:20269A00541FF5F0E254E045F0F2781CE2B402267861E2F5F008E245F0701BC007C0061250
:2026BA00343AAD82D006D0077C004304807848EDF208ECF2800A78487961E3F20809E3F20F
:2026DA007851E224BDFCE43402FD7B009005E87446F0E4A3F07460A3F09005EB7404F0E4F5
:2026FA00A3F08C828D838BF0C007C0061263D6D006D0077847E220E52A7851E2601E784658
:20271A00E2FC08E2541FFD4C6012C296781FE2FC08E2FD7821ECF208EDF28007782174FF04
:20273A00F208F2781CE2700F7851E27006D20FD20E8010C20E800C781CE2B40106782DE218
:20275A00547FF2300F21781CE2B4011BC20F782F7933E2F308E2F5F0E325E0C5F033C5F0A7
:20277A00F309E5F0F3800E782FE2FC08E2FD7833ECF208EDF27835E2FC7D007836E2FA7B04
:20279A0000ECC39AFCED9BFDBC6405BD0002801F7851E22404F582C007C00612145AAC824D
:2027BA00AD83D006D0077837E22CF208E23DF27851E22404FD787774BDF2087402F278216F
:2027DA00900516E2F008E2A3F078237979E2F308E209F38D82C007C0061237C6D006D00745
:2027FA0040107851E2600BC007C006121199D006D0077839E2600B783AE4F208F2783EF23B
:20281A0008F2C007C00612341412391F12381ED006D0077851E27003021CA57846E2FC08B9
:20283A00E2541FFD4C7003021CA5D296021CA5A21122AE82AF83784C74012EF2E43F08F2D2
:20285A0022AE82AF83781FEEF208EFF222E58224FF921222123587AF829005FFEFF0E4A30F
:20287A00F0A3F0A3F09003E8E4F5F01265DEAC82AD83AEF0FF9005D9ECF0EDA3F0EEA3F049
:20289A00EFA3F090120075F07AE4126270AC82AD83AEF0FF74082CF554E43DF555E43EF5E5
:2028BA0056E43FF557AA54E555C4CAC4540F6ACA540FCA6ACAFBE556C454F04BFBAE56E54A
:2028DA0057C4CEC4540F6ECE540FCE6ECE7831EAF208EBF29005FFEAF0EBA3F0E4A3F0A3B5
:2028FA00F0902710E4F5F0C003C0021265DE85825885835985F05AF55B9005FFE554F0E5E3
:20291A0055A3F0E556A3F0E557A3F0900271E4F5F01265DEAC82AD83AEF0FFD002D003C394
:20293A00E5589CE5599DE55A9EE55B9F500A783174012AF2E43B08F278319005F3E2F00855
:20295A00E2A3F090000D1264C1E5828583F0782F240DF2E435F008F230243478297474F2E5
:20297A007832E2F5F018E225E0C5F033C5F0F208E5F0F27831E2FE08E2CE25E0CE33CE2535
:20299A00E0CE33FF782FE22EF208E23FF28005782974F8F2782FE2F55408E2C55425E0C556
:2029BA005433F555782AE554F208E555F278319005FFE2F008E2A3F0E4A3F0A3F07829E212
:2029DA00FA7B007C007D008A828B838CF0ED1265DE85825885835985F05AF55B782FE2F53A
:2029FA005C08E2F55DE4F55EF55FE55C2558FCE55D3559FDE55E355AFEE55F355BFFEC2C58
:202A1A00F558ED33F559EE33F55AEF33F55BAA54AB55E4FEFFEA2558FAEB3559FBEE355ACE
:202A3A00FEEF355BFFE55C2AFCE55D3BFDE55E3EFEE55F3FFF7839E26035783C7438F2089C
:202A5A007401F2788C74A8F2087403F208E4F208F27890ECF208EDF208EEF208EFF28C82EE
:202A7A008D838EF0EF124A42AC82AD83AEF0FFC374FF9C741F9DE49EE49F50087CFF7D1FB0
:202A9A007E007F00C3EC94A8ED9461EE9400EF940040087CA87D617E007F007825ECF20883
:202ABA00EDF27831E2F55C08E2F55DE4F55EF55FE55C255CF55CE55D33F55DE55E33F55ED7
:202ADA00E55F33F55FE55C255CF55CE55D33F55DE55E33F55EE55F33F55F782FE2F55808C5
:202AFA00E2F559E4F55AF55BE558255CF55CE559355DF55DE55A355EF55EE55B355FF55F8B
:202B1A00E55C255CF55CE55D33F55DE55E33F55EE55F33F55FE55C255CF55CE55D33F55D53
:202B3A00E55E33F55EE55F33F55F782AE2F55408E2F555E4F556F557E554255CF55CE55526
:202B5A00355DF55DE556355EF55EE557355FF55FE558255CFCE559355DFDE55A355EE55B99
:202B7A00355F7827ECF208EDF2786EE27E0024F6FFEE34FFFE9006107402F0E4A3F08F8231
:202B9A008E8312682FAE82AF8378319005F3E2F008E2A3F08E828F831264C1AE82AF83784C
:202BBA002FE22EF208E23FF27825792FE3F5F0C3E295F0FE09E3F5F008E295F0FF78319002
:202BDA000597E2F008E2A3F08E828F83125D96AE82AF837829E2FC7D00C3EC9EED9F50043E
:202BFA008C068D078E8212119C784874FFF208F2781DF208F29005E5E4F09005E67410F0E9
:202C1A00E4A3F090058475F0001263AE9005E5E4F09005E67410F0E4A3F090057475F00060
:202C3A001263AE78457413F29003CA7406F0D295C20D22782AE2C0E008E2C0E07861E2C0D9
:202C5A00E008E2C0E0742EC0E0746FC0E07480C0E01207D2E58124F9F581900001125CC8EC
:202C7A007825E2C0E008E2C0E07861E2C0E008E2C0E07447C0E0746FC0E07480C0E0120721
:202C9A00D2E58124F9F581900001125CC87829E2FE7F00C006C0077861E2C0E008E2C0E016
:1B2CBA007461C0E0746FC0E07480C0E01207D2E58124F9F581900001025CC8D8
:206E75005B25755D204C2F5220525353493A2025752F257520204C2F52206E6F6973653A1B
:206E95002025752F25750A005B25755D20706B74733A202575207478653D25752072786571
:206EB5003D2575207374783D2575207372783D2575206563633D25752F25752074656D707B
:206ED5003D25642064636F3D25750A00737461636B20626C6F776E0A0070646174612063B1
:206EF500616E617279206368616E6765640A00496E76616C6964206C656E6774682E2E2089
:206F150025750A006F76657273697A65642074646D207061636B6574005B25755D20736992
:206F35006C656E63655F706572696F643A2025750A005B25755D2074785F77696E646F7700
:206F55005F77696474683A2025750A005B25755D206D61785F646174615F7061636B657417
:0D6F75005F6C656E6774683A2025750A0030
:0A04DA0078547441F278597464F20A
:202CD500AF828F06BE08028021BE0D028005BE7F36801775820A125BA07855E224CCF58230
:202CF500E43403F583E4F0D218227855E26066758208125BA0758220125BA0758208125B3B
:202D1500A07855E214F2227855E2B4100050408F057E008D828E83C006C00512692AE5825B
:202D35008583F0D005D00645F0602A8D828E831269EFAD828D077855E2FE785504F2EE244D
:202D5500CCF582E43403F583EFF08F82025BA0C2177855E4F222AF82BF2B0280047858E4A8
:202D7500F27858C3E2F5F0740495F0402C7858E275F003A4902D8D73022DB2022D9C022D33
:202D95009C022DA3022DB27858E22401F22278587404F278597464F2227858E4F278597402
:202DB50064F2227859E2603B7859E214F27859E270317858E260087858E2B4042680067883
:202DD500587401F222D2177858E4F29003CC7441F09003CD7454F09003CEE4F078557402DA
:202DF500F2D21822E5812404F5817C007D007E007F00C004C005C006C0077856E224CCF51B
:202E150082E43403F583E0FBFA7F008A828F83C007C006C005C004C00312644AE58285830E
:202E3500F0D003D004D005D006D007D007D006D005D00445F0606D9005FFECF0EDA3F0EE2E
:202E5500A3F0EFA3F090000AE4F5F0C0031265DEAF82AE83ADF0FCD0038B027B00EA24D019
:202E7500FAEB34FFFBE58124FDF8A60208A603EB3395E008F608F6E58124FDF8E62FF60831
:202E9500E63EF608E63DF608E63CF6E58124FDF886040886050886060886077856E2240128
:202EB500F2022E078C828D838EF0EFC8E58124FCF581C822201801227855E2B40200E433C4
:202ED500FF6003022F529003CCE0FEBE526F9003CDE0FEBE546778567403F278557956C3EF
:202EF500E2F5F0E395F0501B7856E224CCF582E43403F583E0FEBE2C0280087856E2240152
:202F1500F280D87856E224CCF582E43403F583E0FEBE2C1C7856E2FE785604F2EE24CCF57F
:202F350082E43403F583E4F0122DF9121BA6800690FFFF121BA67855E4F2C21822EF70693A
:202F55009003CCE0FFBF41619003CDE0FFBF54599003CEE0FF6023BF26028023BF2B028059
:202F750023BF49028023BF4F028028BF5002801EBF53028027BF5A2E8027122FC5802A129A
:202F9500321380251232F18020123003801B1232EE801678597464F2C217800D123182806F
:202FB5000843EF1080FE122FE47855E4F2C218227861E2C0E008E2C0E07482C0E0746FC052
:202FD500E07480C0E01207D2E58124FBF581227861E2C0E008E2C0E0748BC0E0746FC0E059
:202FF5007480C0E01207D2E58124FBF581229003CFE0FF6037BF30028032BF31028058BF1C
:203015003203023097BF33030230BDBF34030230E6BF350302310FBF3603023121BF37032D
:20303500023124BF380302312702317F74CEC0E07473C0E07480C0E07861E2C0E008E2C01C
:20305500E07497C0E0746FC0E07480C0E01207D2E58124F8F5812274E3C0E07473C0E074C2
:2030750080C0E07861E2C0E008E2C0E07497C0E0746FC0E07480C0E01207D2E58124F8F512
:203095008122744EC0E0E4C0E07861E2C0E008E2C0E074A0C0E0746FC0E07480C0E01207C9
:2030B500D2E58124F9F581227894E2FE7F00C006C0077861E2C0E008E2C0E074A0C0E07409
:2030D5006FC0E07480C0E01207D2E58124F9F581227895E2FE7F00C006C0077861E2C0E0DE
:2030F50008E2C0E074A0C0E0746FC0E07480C0E01207D2E58124F9F581227F008F82C00709
:2031150012499BD0070FBF130040F122022C4D0212FA7861E2F5F008E245F070207861E206
:20313500C0E008E2C0E074A9C0E0746FC0E07480C0E01207D2E58124FBF581802C12284967
:203155009219E433FE7F00C006C0077861E2C0E008E2C0E074BAC0E0746FC0E07480C0E0C4
:203175001207D2E58124F9F58122022FE478567403F2122DF9AC82AD83AEF0FFBC130040A6
:2031950003022FE47856E224CCF582E43403F583E0FFBF3D028036BF3F618C82124666ABEF
:2031B50082AD83AEF0FFC003C005C006C0077861E2C0E008E2C0E074C9C0E0746FC0E074DD
:2031D50080C0E01207D2E58124F7F58122EC602B7856E22401F2C004122DF9AB82AD83AE71
:2031F500F0FFD0047888EBF208EDF208EEF208EFF28C821244745003022FC5022FE4900399
:20321500CFE0FFBF46028012BF54028053BF55028014BF570280090232EB124901022FC5AE
:203235001248C5022FC59005F574D3F0746FA3F07480A3F09003D075F0001264E1E582859B
:2032550083F045F0701775B7A575B7F1758F0390F7FE74FFF0758F0043EF1080FE022FE474
:203275009005F574D9F0746FA3F07480A3F09003D075F0001264E1E5828583F045F070054D
:203295007857E4F2229005F574DAF0746FA3F07480A3F09003D075F0001264E1E5828583FF
:2032B500F045F070077857E26401F2229005F574E0F0746FA3F07480A3F09003D075F000A0
:2032D5001264E1E5828583F045F070077857E26402F222022FE4022FE4022FE478567404C7
:0732F500F2122DF9022FE493
:206F82005B25755D204F4B0A005B25755D204552524F520A005B25755D2025730A005B253F
:206FA200755D2025750A005B25755D2053796E633A20426173650A005B25755D2053796E9F
:206FC200633A2025750A005B25755D20256C750A00504441544500003D52535349003D544F
:036FE200444D001B
:2032FC00AF83E582900410F0EFA3F0900410E0FEA3E0FF90040FE0FD7C008D027B001ABA25
:20331C00FF011B8C007900C3E89AE964808BF063F08095F05046C007C006C005C00412616D
:20333C0024AA82D004D005D006D0078DF0EA84E5F02EFAE43FFB8A828B83E0F512C005EC13
:20335C002EF8E43FFD88828D83E0F98A828B83F088828D83E512F00CD005809E22AF83E5D5
:20337C0082900412F0EFA3F07F00785AC3E2F5F0EF95F0500FEF24DDF582E43403F583EF00
:20339C00F00F80E6900412E0FEA3E0FF8E828F8312617E785AE2FF7E008F047D001CBCFF7B
:2033BC00011D8E027B00C3EA9CEB64808DF063F08095F05042C007C006126124AC82D00621
:2033DC00D0078FF0EC84E5F024DDFCE43403FD8C828D83E0F513C007EE24DDFAE43403FF51
:2033FC008A828F83E0FB8C828D83F08A828F83E513F00ED00780A222785BE224DDF582E46A
:20341C003403F583E0F58222785AE2F5F0E484E5F024DDF582E43403F583E0F58222785B3B
:20343C00E2F58222E582900416F0E0785BF222785BE2FE7F000EBE00010F785A9005FBE2DB
:20345C00F0E4A3F08E828F83126575AE82AF83785BEEF2201A0C785A795BE2F5F0E484E5C6
:08347C00F0F322A21B921A22B8
:20348400AFF0AE83E582900513F0EEA3F0EFA3F0201C02C322785CC3E2F5F074FC95F05090
:2034A4000512381E8045900513E0FDA3E0FEA3E0FF8D828E838FF0785CE2126476786FE244
:2034C400FD08E2FE7F009005E87417F07404A3F0E4A3F0785C9005EBE2F0E4A3F08D828ED0
:2034E400838FF01263D612381ED3227896E2FE08E2FFBEFF05BFFF02800C0EBE00010F78E5
:2035040096EEF208EFF2C322AF8275A700C294C2B77586FF7871E2FD08E2FE8F041FEC609F
:203524001130B1FD8D828E83E0F586A3AD82AE8380E930B1FD74805584FFBF800280F6C28E
:20354400B7D29475A70022201C05785DE26002D322758231123D0CE58230E402D322C322E3
:20356400A2A8921EC2A8101D028006A21E92A8D322A21E92A8C322785EE2F58222758226F2
:20358400023D0C786BE2F58222758208123D0CAF8274014FFEC007C006758208123CD6156C
:2035A40081D0075307FEC007758208123CD6158122758208123D0CAF8274024FFEC007C0E0
:2035C40006758208123CD61581D0075307FDC007758208123CD6158122E582FF2403501962
:2035E400C00774E5C0E0746FC0E07480C0E0124B2B158115811581D007C00712358DD0075D
:20360400C007C00775823E123CD61581D007EFFE24DF50027E2078737971E2F308E209F3E2
:203624008E82C007C00612350CD006D007EFC39EFF7873E22EF208E23400F2C007E4C0E052
:20364400758205123CD61581E4C0E0758206123CD61581C21DC21F7409C0E0758207123C4C
:20366400D61581125D39AC82AD83D007C007C005C004125D39AA82AB83D004D005D007EA41
:20368400C39CFAEB9DFB7875C3E2F5F0EA95F008E2F5F0EB95F040030237A9758203C0073F
:2036A400C005C004123D0CAB82D004D005D007301F40EF603DEB30E5397E04BF040050028A
:2036C4008F0678737971E2F308E209F38E82C007C006C005C00412350CD004D005D006D0F9
:2036E40007EFC39EFF7873E22EF208E23400F2023670301F40EF603DEB20E6397E04BF0441
:203704000050028F0678737971E2F308E209F38E82C007C006C005C00412350CD004D0050C
:20372400D006D007EFC39EFF7873E22EF208E23400F2023670EB30E72012358D7898E2FA02
:2037440008E2FEBAFF05BEFF02800C0ABA00010E7898EAF208EEF2C322758202C007C00563
:20376400C004123D0CAB82D004D005D007EB30E105D21F023670201F03023670EB30E103F6
:20378400023670EF601D7898E2FE08E2FFBEFF05BFFF02800C0EBE00010F7898EEF208EF67
:2037A400F2C322D3227898E2FE08E2FFBEFF05BFFF02800C0EBE00010F7898EEF208EFF29D
:2037C400C322E582900518F0A2A89221C2A8900516E0FEA3E0FFFDC007C006C00575823A0A
:2037E400123CD61581D006D007C00675823B123CD61581900518E0FF78777973E2F308E286
:2038040009F378797975E2F308E209F38F821235DD9220A22192A8A22022C2A8C21C785C2A
:20382400E4F2C21D785DE4F27413C0E0758205123CD615817440C0E0758206123CD615813C
:20384400123D8012358D1235B57405C0E0758207123CD61581D2A8D322900032125CC87518
:203864008201123D0CAF82BFFF028005BF05005002C322123DE0758201123D0CE582FF20ED
:20388400E006123DE0922222EF30E102D322C322AC82AD83AEF0FFC3ED941CEE944EEF94AF
:2038A4000E400E74C09C74F79D74BA9E74379F5002C3227863ECF208EDF208EEF208EFF212
:2038C4008C828D838EF0EF123E4CD322AC82AD83AEF0FFC374F09C74E89D74269EE49F5006
:2038E40002C322787B7410F2087427F208E4F208F28C828D838EF0EF123D8CAC82AD83AE95
:20390400F0FF7867ECF208EDF208EEF208EFF2C00475827A123CD61581D322E58290051946
:20392400F0786CE2FFE0FEB5070122786CEEF2C006758279123CD61581C21D22786CE2F5A1
:203944008222AF82C007E4C0E0758205123CD61581E4C0E0758206123CD61581123D80740F
:2039640015C0E075820B123CD615817412C0E075820C123CD6158174CCC0E0758209123CC1
:20398400D61581D007EF249B5010C00774C0C0E0758258123CD61581D0077863E2FB08E2B5
:2039A400FC08E2FD08E28B828C838DF0C007123E4C7867E2FB08E208E208E2C00375827A8C
:2039C400123CD61581748DC0E0758230123CD615817442C0E0758233123CD6158174CFC06A
:2039E400E0758232123CD6158174FFC0E0758245123CD6158174FFC0E0758246123CD6156E
:203A04008174FFC0E0758243123CD6158174FFC0E0758244123CD61581743CC0E075827C4F
:203A2400123CD615817420C0E075827D123CD615817432C0E075827E123CD61581786E7497
:203A440010F2786EE2FEC006758234123CD615817428C0E0758235123CD6158175820012C4
:203A64003BFDD0077E00EE90700293FDC39F50060EBE0C0040F0EEFF90700293FE786BF220
:203A8400BE200040047E0D80027E2D75820DC007C006124666AA82AB83ACF0FDD006D00759
:203AA400EA4B4C4D600B786BE2FD247F4003430602C007C006758270123CD615817423C0D1
:203AC400E0758271123CD615817444C0E075821D123CD61581D007786BE2FEBEC800501238
:203AE400C007740AC0E075821E123CD61581D0078010C0077402C0E075821E123CD61581FB
:203B0400D0077894E2B4433A7E00EE75F00DA4240FFC747035F0FDEF2CF582E43DF583E4E5
:203B240093FDEE906FF693FCC007C006C0058C82123CD61581D006D0070EBE0C0040CB02D3
:203B44003BFB7894E2B447397E00EE75F00DA424ABFC747035F0FDEF2CF582E43DF583E4A7
:203B640093FDEE906FF693FCC007C006C0058C82123CD61581D006D0070EBE0C0040CB8015
:203B8400767894E2B486397E00EE75F00DA42447FC747135F0FDEF2CF582E43DF583E493B8
:203BA400FDEE906FF693FCC007C006C0058C82123CD61581D006D0070EBE0C0040CB803731
:203BC4007E00EE75F00DA424E3FC747135F0FDEF2CF582E43DF583E493FDEE906FF693FC44
:203BE400C007C006C0058C82123CD61581D006D0070EBE0C0040CBD322E58290051AF0E03C
:203C0400FF7E00EE90727F93FDC39F50060EBE080040F090051BEEF0BE080690051B7407E3
:203C2400F090051BE0FF90727F93FE786DEEF2C00775826D123CD6158122786DE2F58222C3
:203C4400AF83E58290051CF0EFA3F090051CE0FEA3E0FF8E04785FECF28F057860EDF220E1
:203C64002434C007C006C005C00575823C123CD61581D005D006D007C006C005C00675821A
:203C84003D123CD61581758241123CD61581758242123CD6158122AF83E58290051EF0EFF7
:203CA400A3F090051EE0FEA3E0FF7861EEF208EFF28F06C00675823F123CD615817861E2B2
:203CC40054FFFE08E25400C006758240123CD6158122AF82A2A89238C2A875A700C294C295
:203CE400B774804FF58630B1FDA8811818868630B1FD74805584FFBF800280F6C2B7D294C8
:203D040075A700A23892A822AF82A2A89238C2A875A700C294C2B78F8630B1FD7586003095
:203D2400B1FD74805584FFBF800280F6AF86C2B7D29475A700A23892A88F8222AF8275A78A
:203D440000C294C2B775867F30B7FD8586E0E58124FDF886050886068F041FEC6016C2B71C
:203D640075860030B7FD8D828E83E586F0A3AD82AE8380E4C2B7D29475A700227582031255
:203D84003D0C758204023D0CAF82AE83ADF0FC787FEFF208EEF208EDF208ECF2787EE2C36D
:203DA40013FF18E213FE18E213FB18E213FA787FE22AFA08E23BFB08E23EFE08E23FFF78F0
:203DC4007B9005D9E2F008E2A3F008E2A3F008E2A3F08A828B838EF0EF026270E4C0E07559
:203DE4008205123CD61581E4C0E0758206123CD61581123D807481C0E0758207123CD615A8
:203E040081900002125C8F308707125CC050F8C322E4C0E0758205123CD615817402C0E025
:203E2400758206123CD61581900014125C8F125CC04013758203123D0C758204123D0CE515
:203E44008230E1EAD322C322AF82AE83ADF0FC7883EFF208EEF208EDF208ECF27883C3E2DB
:203E6400F5F0E495F008E2F5F0743895F008E2F5F0749C95F008E2F5F0741C95F040030263
:203E84003F417884E224C8F208E23463F208E234E3F29005D9E4F0742DA3F07431A3F0745A
:203EA40001A3F07883E2F58208E2F58308E2F5F008E2126270AA82900520EAF09005FFEADE
:203EC400F0E4A3F0A3F0A3F0902D0075F03174011265DEAC82AD83AEF0FF7883E2C39CF20B
:203EE40008E29DF208E29EF208E29FF2787B7471F2087402F208E4F208F27883E2F58208E2
:203F0400E2F58308E2F5F008E2123D8C7883C0E0E582F208E583F208E5F0F2D0E008F27868
:203F240083E225E0F208E233F208E233F208E233F2900520E0FF74204FF00240027884E26B
:203F440024E4F208E234B1F208E234F1F29005D97480F07496A3F07498A3F0E4A3F07883A1
:203F6400E2F58208E2F58308E2F5F008E2126270AC82900520ECF09005FFECF0E4A3F0A39C
:203F8400F0A3F090968075F098E41265DEAC82AD83AEF0FF7883E2C39CF208E29DF208E232
:203FA4009EF208E29FF2787B7471F2087402F208E4F208F27883E2F58208E2F58308E2F54B
:203FC400F008E2123D8C7883C0E0E582F208E583F208E5F0F2D0E008F27883E225E0F2087D
:203FE400E233F208E233F208E233F2181818E225E0F208E233F208E233F208E233F29005B5
:2040040020E0FF74404FF07883E2FC08E2FDC005C004E0C0E0758275123CD61581D004D017
:20402400058D07C005C004C007758276123CD61581D004D005C004758277123CD6158122B5
:20404400D2EC20ECFDAFBE7E00ACBD7D00EC4206ED42078E828F8312691DAA82AB83ACF0AA
:20406400FDC002C003C004C00590FF2E75F0D1743F12619FAA82AB83ACF0FDE58124FCF50B
:20408400818A828B838CF0ED1268E9AE82AF83EE24FFFCEF34FBFD8C828D8312691DAA8249
:2040A400AB83ACF0FD749AC0E014C0E07459C0E07440C0E08A828B838CF0ED126AA2AA8245
:2040C400AB83ACF0FDE58124FCF581E4C0E0C0E074C8C0E07441C0E08A828B838CF0ED122F
:2040E40067D6AA82AB83ACF0FDE58124FCF5818A828B838CF0ED0268E9E582900521F0E0CD
:20410400FF24FC4068EF2F2F9041107302411C0241710241710241417418C0E075820D12A6
:204124003CD61581758208123D0CAF82741F5F4480FFC007758208123CD6158122758208F2
:20414400123D0CAF82741F5F4420FFC007758208123CD61581740AC0E075820D123CD6159F
:2041640081E4C0E075820E123CD6158122758208123D0CAF8253071FC007758208123CD667
:204184001581740AC0E075820D123CD615817404C0E075820E123CD6158122C027C0E0C069
:2041A400F0C082C083C007C006C005C004C003C002C001C000C0D075D000758204123D0C3F
:2041C400AF82758203C007123D0CAE82D007EE30E449785DE2FC7D0074322CFCE43DFDC35D
:2041E40074FC9CE49D50030242AA785DE22417FCE43404FDC007C006C004C0057582321295
:204204003D4015811581785DE22432F2758226123D0CE582D006D007785EF2EF30E611D2B6
:204224001D758226C006123D0CE582D006785EF2202404EE20E06FEE30E16975824B123D7C
:204244000CE582FF2403405E785DC3E2F5F0EF95F04053785DC3E29F5022785DE22417FD43
:20426400E43404FE785DD3E29FF4FCC007C005C0068C82123D4015811581D007785CEFF260
:20428400D21CE4C0E0758205123CD61581E4C0E0758206123CD615817402C0E07582071291
:2042A4003CD61581801E7896E2FE08E2FFBEFF05BFFF02800C0EBE00010F7896EEF208EF0E
:2042C400F212381ED0D0D000D001D002D003D004D005D006D007D083D082D0F0D0E0D02738
:0142E40032A7
:206FE5006F76657273697A6564207061636B6574001C1F2021222324252A6E6F7202040888
:207005001013182030406080C0FA2727272E1601050B9A888A8C8D0303030303030303035C
:2070250003030303F4FA7D3F69A77D535E7D5E3F302000010201000101010101020241831C
:20704500060C37C406895D065D0CAA8912254A4C9C25378625864AAB000102040201020396
:20706500020202040785080E12728A0E18BB0EBBEAFF1D1D1D1E1E1E20304150505050102C
:207085002041839BC4080C101820314062C58912A69C314A6293C5270003060D1A1E2633D4
:2070A5004D669ACDFEFE2B2B2B2E1601050B9A888A8C8D03030303030303030303030303F3
:2070C500F4FA7D3F69A77D535E7D5E3F30200001020100010101010102024183060C37C47B
:2070E50006895D065D0CAA8912254A4C9C25378625864AAB000102040201020302020204F9
:207105000785080E12728A0E18BB0EBBEAFF1E1E1E21212121304150505050102041839B09
:20712500C4080C101820314062C58912A69C314A6293C5270003060D1A1E26334D669ACD98
:20714500FEFE010101010101050B9A888A8C8D03030303030303030303030303D0E8F4FA86
:20716500D3A77D535E7D5E3F30E0602000000001010101010202102041839BC406895D066A
:207185005D0CAA62C58912A69C25378625864AAB000000010101020302020204072344854C
:2071A50008398A0E18BB0EBBEAFF1C1C1C1C1C1E20304150505050102041839BC4080C107A
:2071C5001820314062C58912A69C314A6293C5270003060D1A1E26334D669ACDFEFE0101E2
:2071E50001010101050B9A888A8C8D03030303030303030303030303D0E8F4FAD3A77D539A
:207205005E7D5E3F30E0602000000001010101010202102041839BC406895D065D0CAA629E
:20722500C58912A69C25378625864AAB0000000101010203020202040723448508398A0E47
:2072450018BB0EBBEAFF1E1E1E1E1E1E20304150505050102041839BC4080C1018203140FF
:2072650062C58912A69C314A6293C5270003060D1A1E26334D669ACDFEFE010205080B0EC3
:027285001114E2
:2042E50075B7A575B7F122D310AF01C3C0D01242E5758F0790000074FFF0758F00D0D09256
:20430500AF22D310AF01C3C0D0AE82AF83758F048E828F83E493FF758F008F82D0D092AFE9
:2043250022D310AF01C3C0D0AE82AF83C007C0061242E5D006D007758F058E828F83788771
:0A434500E2F0758F00D0D092AF2295
:02F7FE003DC20A
:20434F00AF82BF1300400122EF24ED5003024472EF240A83F582EF241783F583E473939522
:20436F009FB4B6CBE2CD727272727272722FF7CD4D43434343434343434444444444444459
:20438F0044434344C322AF608F82125BB4922322C3E4956074019561E49562E49563400302
:2043AF00024472C322D322C374149560E49561E49562E495634003024472C322C322C3748F
:2043CF00019560E49561E49562E495634003024472C322C374029560E49561E49562E4950B
:2043EF00634003024472C32274FFB5600F74FFB5610AE4B56206E4B5630280028002D32249
:20440F0090055EE0FCA3E0FDA3E0FEA3E0FFECB5600EEDB5610AEEB56206EFB56302C32226
:20442F0090056AE0FCA3E0FDA3E0FEA3E0FFC3E5609CE5619DE5629EE5639F402622C3E58C
:20444F00609402E5619400E5629400E56394005012C3E4956074809561E49562E4956350D7
:20446F0002C322D322AF827888E2F56008E2F56108E2F56208E2F5638F82C00712434FD0DA
:20448F0007400122EF24ED5003024645EF240A83F582EF241783F583E47345454545CF4508
:2044AF0093A9454545EE3545D3FD2539114646464644464545464646444546454546464612
:2044CF007888E2F582C007123BFD123C3EAE82D0077888EEF208E4F208F208F20246457819
:2044EF008CE4F208F208F208F278907464F208E4F208F208F27888E2F58208E2F58308E214
:20450F00F5F008E2C007124A42AB82AC83ADF0FED0077888EBF208ECF208EDF208EEF27880
:20452F0035EBF20246457888E2F5F008E242F008E242F008E245F06042788C7419F208E49E
:20454F00F208F208F2789074DCF208E4F208F208F27888E2F58208E2F58308E2F5F008E2D6
:20456F00C007124A42AB82AC83ADF0FED0077888EBF208ECF208EDF208EEF278887939E2D3
:20458F00F30246457888E2FE900594F07888EEF208E4F208F208F20246457888E2F5F00885
:2045AF00E242F008E242F008E245F024FF922550047E0180027E007888EEF208E4F208F238
:2045CF0008F280727888E2F5F008E242F008E242F008E245F024FF922650047E0180027E14
:2045EF00007888EEF208E4F208F208F280487888E2FD08E2FE8D828E83C007123C9BD007C4
:20460F0080347888E2FD08E2FE8D828E83C00712284CD00780207888E2FD08E2FE8D828EC8
:20462F0083C00712285BD007800C7888E2F582C007122867D007EF75F004A42422F5827464
:20464F000535F0F5837888E2F008E2A3F008E2A3F008E2A3F0D322AF82BF13004007900091
:20466F0000E4F5F022EF75F004A42422F582740535F0F583E0FCA3E0FDA3E0FEA3E08C8203
:20468F008D838EF02285826485836590056EE0FCA3E0FD900570E0FB8C018D028B007F001E
:2046AF00E82CF8EF3DFFC3E998EA9F5041E9C39CFEEA9DFFEE2564FEEF3565FF89828A8375
:2046CF00C007C006C005C004C003C002C001124307A882D001D002D003D004D005D006D024
:2046EF00078E828F83E8F009B900B10A80AE8564108565118B82C002C0011207ECAE82AF97
:20470F0083D001D002740129FCE43AFD8C828D83C007C006C002C001124307AD82D001D055
:20472F00028D047D0089828A83C005C004124307AB82D004D005D006D0077A00EB4205EA44
:20474F004204EEB50506EFB504028002C322D322858266858367900571E0FCA3E0FD90057D
:20476F0073E0FB8C688D698B027F00EA2CFAEF3DFFC3E5689AE5699F5036E568C39CFEE5FF
:20478F00699DFFEE2566F582EF3567F5837887E0F2856882856983C005C004C0031243269A
:2047AF00D003D004D0050568E4B568BB056980B78566108567118B821207ECAE82AF838EA6
:2047CF00047887ECF2856882856983C007C006124326D006D00774012568FCE43569FD785F
:2047EF0087EFF28C828D83024326D310AF01C3C0D0124901900000124307E582FF24B3400E
:20480F0005BF30005004C30248BE90056E7401F0E4A3F0900570EFF09005221246944003CD
:20482F000248BE758200124666AC82AD83AEF0FFBC1B0BBD0008BE0005BF00028003C380C0
:20484F006E7F00EF75F004A42422FD740535F0FE8D828E83E0F560A3E0F561A3E0F562A3D6
:20486F00E0F5638F82C007C006C00512434FD005D006D0074032EF75F007A42487FB74726B
:20488F0035F0FC8B828C83A3A3A3E493F9A3E493FAA3E493FBA3E493FC8D828E83E9F0EA51
:2048AF00A3F0EBA3F0ECA3F00FBF4C004095D333D0D092AF1322D310AF01C3C0D0900522B1
:2048CF00741BF0E4A3F0A3F0A3F01242EC7887744CF29000001243269005717401F0E4A3BF
:2048EF00F0900573744CF090052212475FD0D092AF227F00EF75F004A42422FD740535F033
:20490F00FEEF75F007A42487FB747235F0FC8B828C83A3A3A3E493F9A3E493FAA3E493FB40
:20492F00A3E493FC8D828E83E9F0EAA3F0EBA3F0ECA3F00FBF130040BB22AF827E008F03A0
:20494F007C007D40EE75F007A42487F582747235F0F583E493F8A3E493F9A3E493FA900541
:20496F00F5E8F0E9A3F0EAA3F08B828C838DF0C007C0061264E1E5828583F0D006D0074594
:20498F00F060060EBE130040B58E822285826A74ED256A406EE56A75F004A42422F5827410
:2049AF000535F0F583E0F56BA3E0F56CA3E0F56DA3E0F56EE56A75F007A42487F5827472F0
:2049CF0035F0F583E493FAA3E493FEA3E493FFAC6A7D00C06BC06CC06DC06EC002C006C0FC
:2049EF0007C004C0057861E2C0E008E2C0E0740CC0E07473C0E07480C0E01207D2E5812483
:204A0F00F2F58122AF82BF13005021EF75F007A42487F582747235F0F583E493FDA3E49357
:204A2F00FEA3E493FF8D828E838FF02290000075F00022AC82AD83AEF0FF788CC3E2F5F0EF
:204A4F00EC95F008E2F5F0ED95F008E2F5F0EE95F008E2F5F0EF95F0500D788CE2FC08E2E7
:204A6F00FD08E2FE08E2FF7890C3E29C08E29D08E29E08E29F500D7890E2FC08E2FD08E264
:0C4A8F00FE08E2FF8C828D838EF0EF2287
:207287001E73801B00000025738039000000327380400000003C7380C700000042738014C6
:2072A7000000004A7380000000004E7380010000005673800000000060738038F60D006908
:2072C700738000290E00727380320000007F7380640000008A73800000000093738000000D
:2072E70000009E738000000000A5738001000000AC7380FFFF0000BC738000000000C473DA
:2073070080040000005B25755D205325753A2025733D256C750A00464F524D4154005345E3
:207327005249414C5F5350454544004149525F5350454544004E45544944005458504F578C
:20734700455200454343004D41564C494E4B004F5050524553454E44004D494E5F465245E2
:2073670051004D41585F46524551004E554D5F4348414E4E454C5300445554595F43594323
:207387004C45004C42545F52535349004D414E4348455354455200525453435453004E4F69
:2073A70044454944004E4F444544455354494E4154494F4E0053594E43414E59004E4F4442
:0773C70045434F554E5400F1
:0604000002047902419F95
:01040B0032BE
:0104130032B6
:01041B0032AE
:030423000254314F
:03042B00025CD19F
:010433003296
:01043B00328E
:010443003286
:01044B00327E
:010453003276
:01045B00326E
:010463003266
:01046B00325E
:03047300025C47E1
:0304E40002047699
:03047600024A9B9C
:204A9B00AFC47894EFF2AFC37895EFF2124B651247F94003124901758201124666AC828C18
:204ABB00821255E8124BE6758206124666AC82900594ECF0758207124666AC82AD83AEF021
:204ADB00FFEC4D4E4F24FF9225758205124666AC82AD83AEF0FFEC4D4E4F24FF92247582B1
:204AFB000E124666AC82AD83AEF0FFEC4D4E4F24FF922612381E401574E7C0E07473C0E0E4
:204B1B007480C0E0124B2B158115811581021C9390740175F080126971E58124FCFFC007C9
:204B3B00E58124FBF886820886830886F012054A158190740C75F080126971D2AFD2AC90DF
:204B5B0003E8125CC843EF1080FE75A700AFD974BF5FF5D975B28F75A90075B64075FF8022
:204B7B007E5E7F01EE24FFFCEF34FFFD8C068D07EC4D70F075EF0675A41075A70F75A410EC
:204B9B0075A70075E10143E24043A5F575A70F43A5F5E5A675A6FF75A70075844075B0001E
:204BBB0075850043B001D29475A700C289125D7775B800D2AFC295D296D2EF75BCF975BAB2
:204BDB000075BB1B75D10775E3402212385D4015740DC0E07474C0E07480C0E0124B2B1592
:204BFB0081158115817894E2B44302801C7894E2B4470280417894E2B4860280667894E2C0
:204C1B00B49103024CA9024CD578A27490F20874D1F20874CFF2087419F278A67470F20808
:204C3B00745EF20874EAF2087419F278AE740AF2785AF2024D0A78A27480F20874A1F208EC
:204C5B007403F208741CF278A674C0F20874E3F2087412F208741CF278AE740AF2785AF24D
:204C7B00024D0A78A2E4F20874A1F20874BCF2087433F278A67440F20874E3F20874CBF2A8
:204C9B00087433F278AE740AF2785AF2806178A274C0F20874CAF2087489F2087436F27892
:204CBB00A6E4F2087428F20823F2087437F278AE7414F2785A7432F2803578A2E4F208F25C
:204CDB0008F208F278A6F208F208F208F278AEF27894E2FA7B00C002C0037425C0E07474A6
:204CFB00C0E07480C0E0124B2BE58124FBF58175820A124666AA82AB83AEF0FFEA4B4E4F5A
:204D1B00601175820A124666AC82AD83AEF0FF785AECF2758208124666AC82AD83AEF0FFE5
:204D3B00EC4D4E4F6037758208124666AC82AD83AEF0FF9005FFECF0EDA3F0EEA3F0EFA330
:204D5B00F09003E8E4F5F01265DE78A2C0E0E582F208E583F208E5F0F2D0E008F2758209C1
:204D7B00124666AC82AD83AEF0FFEC4D4E4F6037758209124666AC82AD83AEF0FF9005FFA5
:204D9B00ECF0EDA3F0EEA3F0EFA3F09003E8E4F5F01265DE78A6C0E0E582F208E583F2087F
:204DBB00E5F0F2D0E008F2758204124666AC82AD83AEF0FFEC4D4E4F6011758204124666B3
:204DDB00AC82AD83AEF0FF78AEECF278AEE2FB7D007E007F00788CE4F208F208F208F278FC
:204DFB00907414F208E4F208F208F28B828D838EF0EF124A42AC8278AEECF2785AE2FC7D35
:204E1B00007E007F00788C7401F208E4F208F208F278907432F208E4F208F208F28C828D30
:204E3B00838EF0EF124A42AC82AD83AEF0FF785AECF27894E2B44302801E7894E2B44703AD
:204E5B00024F027894E2B48603024F937894E2B491030250240250B2788C7480F20874239C
:204E7B00F20874ADF2087418F27890E4F208740BF208746BF208741BF278A2E2F58208E26E
:204E9B00F58308E2F5F008E2124A4278A2C0E0E582F208E583F208E5F0F2D0E008F2788C36
:204EBB007480F2087423F20874ADF2087418F27890E4F208740BF208746BF208741BF2788E
:204EDB00A6E2F58208E2F58308E2F5F008E2124A4278A6C0E0E582F208E583F208E5F0F2B7
:204EFB00D0E008F20250D1788C7480F2087474F20874D2F208741AF278907480F20874CEFE
:204F1B00F2087434F208741DF278A2E2F58208E2F58308E2F5F008E2124A4278A2C0E0E58C
:204F3B0082F208E583F208E5F0F2D0E008F2788C7480F2087474F20874D2F208741AF278FB
:204F5B00907480F20874CEF2087434F208741DF278A6E2F58208E2F58308E2F5F008E212B3
:204F7B004A4278A6C0E0E582F208E583F208E5F0F2D0E008F20250D1788C7440F20874B699
:204F9B00F208749AF2087432F278907440F2087410F20874FDF2087434F278A2E2F58208A8
:204FBB00E2F58308E2F5F008E2124A4278A2C0E0E582F208E583F208E5F0F2D0E008F278BF
:204FDB008C7440F20874B6F208749AF2087432F278907440F2087410F20874FDF208743471
:204FFB00F278A6E2F58208E2F58308E2F5F008E2124A4278A6C0E0E582F208E583F208E50E
:20501B00F0F2D0E008F20250D1788CE4F20874A1F20874BCF2087433F2789074C0F2087468
:20503B00F7F20874BAF2087437F278A2E2F58208E2F58308E2F5F008E2124A4278A2C0E0B9
:20505B00E582F208E583F208E5F0F2D0E008F2788CE4F20874A1F20874BCF2087433F278D5
:20507B009074C0F20874F7F20874BAF2087437F278A6E2F58208E2F58308E2F5F008E21289
:20509B004A4278A6C0E0E582F208E583F208E5F0F2D0E008F2801F7894E2FE7F00C006C0E7
:2050BB00077425C0E07474C0E07480C0E0124B2BE58124FBF58178A679A2E2F5F0E3B5F06E
:2050DB001D08E2F5F009E3B5F01408E2F5F009E3B5F00B08E2F5F009E3B5F0028002801A3B
:2050FB0078A279A6E22440F308E2344209F308E2340F09F308E2340009F375820B124666C4
:20511B00AC827835ECF27F007E007D00788CE4F208F208F208F278907464F208E4F208F2CF
:20513B0008F28C828F838EF0ED124A42AC827835ECF27888ECF208E4F208F208F275820BC6
:20515B0012447475820C124666AC82AD83AEF0FF7839ECF2EC60337F007E007D00788C74AE
:20517B0019F208E4F208F208F2789074DCF208E4F208F208F28C828F838EF0ED124A42AC46
:20519B0082AD83AEF0FF7839ECF278397988E2F309E4F309F309F375820C1244749005D97C
:2051BB0074E8F07403A3F0E4A3F0A3F078A2E2F58208E2F58308E2F5F008E2126270AC82D4
:2051DB00AD83AEF0FF7888ECF208EDF208EEF208EFF27582081244749005D974E8F0740357
:2051FB00A3F0E4A3F0A3F078A6E2F58208E2F58308E2F5F008E2126270AC82AD83AEF0FF86
:20521B007888ECF208EDF208EEF208EFF2758209124474785A7988E2F309E4F309F309F393
:20523B0075820A12447478A679A2E3F5F0C3E295F0FC09E3F5F008E295F0FD09E3F5F0084B
:20525B00E295F0FE09E3F5F008E295F0FF785AE2FA7B0074022AFAE43BFB9005D9EAF0EB7F
:20527B00A3F0EB3395E0A3F0A3F08C828D838EF0EF12627078AAC0E0E582F208E583F208D3
:20529B00E5F0F2D0E008F278ADE2C313FF18E213FE18E213FB18E213FA78A2E22AF208E28A
:2052BB003BF208E23EF208E23FF275820312466612617E785AC3E2F5F0740595F0505412B8
:2052DB006124AE82AF839005F3EEF0EFA3F09002711264C1AE82E583FF3395E0FDFC78AA50
:2052FB0090059DE2F008E2A3F008E2A3F008E2A3F08E828F838DF0EC125E30AC82AD83AEE1
:20531B00F0FF78A2E22CF208E23DF208E23EF208E23FF278A2E2F58208E2F58308E2F5F077
:20533B0008E212389478AAE2F58208E2F58308E2F5F008E21238D0758203124666AC82AD47
:20535B0083AEF0FF785A90059DE2F0E4A3F0A3F0A3F08C828D838EF0EF125E30AC828C8238
:20537B0012391F758202124666AC828C821239464033758202124666AC828C8212394640ED
:20539B0024758202124666AC828C821239464015743CC0E07474C0E07480C0E0124B2B15EC
:2053BB008115811581123587AF827888EFF208E4F208F208F275820212447475820312465E
:2053DB0066123C4475820F124666123C9B75821212466612284C75821012466612285B75F1
:2053FB008211124666AC828C8212286778AEE2F582123BFD123C3EAF827888EFF208E4F21F
:16541B0008F208F275820412447475820312466612337902286EB4
:2073CE004D502053694B20322E36206F6E20484D2D54525000322E36006661696C65642035
:2073EE00746F20656E61626C65207265636569766572000A2A2A50414E49432A2A00007211
:20740E006164696F5F696E697469616C697365206661696C65640062616420626F61726463
:20742E00206672657175656E637920256400726164696F5F636F6E6669677572652066618C
:05744E00696C6564009B
:20543100C027C0E0C0F0C082C083C007C006C005C004C003C002C001C000C0D075D000109E
:205451009803025549AF9930170E3018030255498F82122CD50255498F82C007122D6BD062
:205471000778AFE22401FD08E23400FEBD0009BE04067D007E00800B78AFE22401FD08E2A4
:205491003400FE78B1E2B5050708E2B50602803A78AFE2241BF58208E23406F583EFF078EA
:2054B100AFE22401FD08E23400FEBD0009BE04067D007E00800B78AFE22401FD08E23400AF
:2054D100FE78AFEDF208EEF2801B789CE2FD08E2FEBDFF05BEFF02800C0DBD00010E789C60
:2054F100EDF208EEF230265078AF79B1C3E3F5F0E295F009E3F5F008E295F0401B78B1E245
:205511002400FD08E23404FE78AFD3E29DF4B3FDB308E29EF4FE801578B179AFE3F5F0C37E
:20553100E295F0FD09E3F5F008E295F0FEC3ED9420EE94005002D282109902806178B379FC
:20555100B5E2F5F0E3B5F00B08E2F5F009E3B5F002804930260A308307201704D227803EF4
:2055710078B5E2241BF58208E2340AF583E0FF78B5E22401FD08E23400FEBD0009BE0206FD
:205591007D007E00800B78B5E22401FD08E23400FE78B5EDF208EEF28F998002D227D0D0F0
:2055B100D000D001D002D003D004D005D006D007D083D082D0F0D0E0D0273278B379B5E2C5
:2055D100F5F0E3B5F00A08E2F5F009E3B5F0012230270302584D22AF8275A700C2AC78AFBB
:2055F100E4F208F278B5F208F278B3F208F278B5F208F2D227C28EAE89740F5E4420F5893E
:205611008F82125BDAD28E759810C282D2AC22AF82C0071257F9AD82AE83D007C3ED9401EA
:20563100EE94005002C3228F8212563FD322AF82A2AC9238C2AC78B3E22401FD08E23400EF
:20565100FEBD0009BE02067D007E00800B78B3E22401FD08E23400FE78B5E2B5050708E224
:20567100B50602804478B3E2241BF58208E2340AF583EFF078B3E22401FE08E23400FFBE4B
:205691000009BF02067E007F00800B78B3E22401FE08E23400FF78B3EEF208EFF2302724E5
:2056B100C02712584DD027801B789AE2FE08E2FFBEFF05BFFF02800C0EBE00010F789AEEE4
:2056D100F208EFF2A23892AC2285821485831578B7E27001221257F9AC82AD8378B7E2FAFD
:2056F1007B00C3EC9AED9B501F78B7ECF2789AE2FC08E2FDBCFF05BDFF02800C0CBC000127
:205711000D789AECF208EDF278B7E2FD78B3D3E29400F4B3FBB308E29402F4FC8D027F003F
:20573100C3EB9AEC9F500878B3E2FFC3E49FFD78B3E2241BFE08E2340AFF7C009005E8E58F
:2057510014F0E515A3F0E4A3F09005EBEDF0E4A3F08E828F838CF0C0051263D6D005ED25C7
:2057710014F514E43515F51578B7E2C39DF2D22810AF02C2287F0078B3E22DF208E23FF2F5
:2057910078B3C308E29402400678B4E224FEF2A22892AF78B7E2603E9005E8E514F0E51508
:2057B100A3F0E4A3F078B7E2FE7F009005EBEEF0EFA3F0900A1B75F000C007C0061263D66E
:2057D100D006D007D22810AF02C22878B3EEF208EFF2A22892AFD22810AF02C22830270368
:2057F10012584DA22892AF22A2AC9229C2AC78B379B5C3E3F5F0E295F009E3F5F008E295A2
:20581100F0401B78B5E22400FE08E23402FF78B3D3E29EF4B3FEB308E29FF4FF801578B5C8
:2058310079B3E3F5F0C3E295F0FE09E3F5F008E295F0FFA22992AC8E828F83223026073022
:20585100830420170122C227D29922A2AC922AC2AC78AF79B1E2F5F0E3B5F00B08E2F5F0EE
:2058710009E3B5F002803A78B1E2241BF58208E23406F583E0FF78B1E22401FD08E2340043
:20589100FEBD0009BE04067D007E00800B78B1E22401FD08E23400FE78B1EDF208EEF2802C
:2058B100027F0030264F78AF79B1C3E3F5F0E295F009E3F5F008E295F0401B78B1E22400A4
:2058D100FD08E23404FE78AFD3E29DF4B3FDB308E29EF4FE801578B179AFE3F5F0C3E29568
:2058F100F0FD09E3F5F008E295F0FEC3E49D74029E5002C282A22A92AC8F8222A2AC922B36
:20591100C2AC78B1E2241BF58208E23406F583E0FFA22B92AC8F8222A2AC922CC2AC78B1EB
:20593100E22401FE08E23400FFBE0009BF04067E007F00800B78B1E22401FE08E23400FFD1
:20595100EE241BF582EF3406F583E0FFA22C92AC8F8222AF83E582900595F0EFA3F0A2AC50
:20597100922DC2AC900595E0FEA3E0FF78B1E22EFE08E23FFF530703EE241BF582EF3406D6
:20599100F583E0FFA22D92AC8F8222858216858317125B11AC82AD8378B8E2FA7B00C3EC11
:2059B1009AED9B5002C32278B9EAF208EBF278B1D3E29400F4B3FAB308E29404F4FB78B923
:2059D100C3E2F5F0EA95F008E2F5F0EB95F0501378B179B9D3E29400F4B3F3B308E29404A8
:2059F100F409F3AA16AB177F0078B1E2241BFD08E23406FE9005E8EDF0EEA3F0E4A3F07872
:205A1100B99005EBE2F008E2A3F08A828B838FF01263D678B9E2FC78B8E2C39CF278B9E284
:205A31002516F51608E23517F517D22E10AF02C22E78B179B9E3C5F0E225F0F209E3C5F09F
:205A510008E235F0F278B1C308E29404400678B2E224FCF2A22E92AF78B8E26044AD16AE2A
:205A7100177F009005E8741BF07406A3F0E4A3F078B8E2FB7C009005EBEBF0ECA3F08D828D
:205A91008E838FF0C004C0031263D6D003D004D22E10AF02C22E78B1EBF208ECF2A22E92ED
:205AB100AFD22E10AF02C22E30264F78AF79B1C3E3F5F0E295F009E3F5F008E295F0401BF2
:205AD10078B1E22400FE08E23404FF78AFD3E29EF4B3FEB308E29FF4FF801578B179AFE350
:205AF100F5F0C3E295F0FE09E3F5F008E295F0FFC3E49E74029F5002C282A22E92AFD32253
:205B1100A2AC922FC2AC78AF79B1C3E3F5F0E295F009E3F5F008E295F0401778AF79B1E3E9
:205B3100F5F0C3E295F0FE09E3F5F008E295F0FF801978B1D3E29400F4B3FCB308E2940425
:205B5100F4FD78AFE22CFE08E23DFFA22F92AC8E828F8322125B11AE82AF83E4C39EFE7400
:205B7100049FC423CEC423541F6ECE541FCE6ECEFF9005F3EEF0EFA3F09000641264C1AEE9
:205B910082E583A2E7CE33CE33CE54018E8222AF82BF0A0A75820DC00712563FD0078F82CC
:205BB10002563FAF827E00BE0900501BEE75F003A42453F582747435F0F583E493FDEFB5D7
:205BD1000502D3220E80E0C322AF82C007125BB4D00740027F397E00BE0900501BEE75F078
:205BF10003A42453F582747435F0F583E493FDEFB5050280030E80E0EE75F003A42453FDFC
:205C1100747435F0FE8D828E83A3E493F58DAC8E5304F48D828E83A3A3E4934CF58E9005E6
:165C3100FFEFF0E4A3F0A3F0A3F090007DE4F5F01265DE0211A7FD
:20745300012C02029602042C0009960013600126B001392B08739608E6CB08000000000000
:207473000000000000000000000000000000000000000000000000000000000000000000F9
:207493000000000000000000000000000000000000000000000000000000000000000000D9
:2074B3000000000000000000000000000000000000000000000000000000000000000000B9
:2074D300000000000000000000000000000000000000000000000000000000000000000099
:205C4700C027C0E0C0F0C082C083C007C006C005C004C003C002C001C000C0D075D000751B
:205C67009104122DB8E51860021518D0D0D000D001D002D003D004D005D006D007D083D0A6
:205C870082D0F0D0E0D02732AE82AF83C3EE94F6EF940940047518FF2274092EFEE43FFFFC
:205CA700900597740AF0E4A3F08E828F83125D96AE828E182285821822E518B401009230F8
:205CC70022125C8F125CC050FB22C027C0E0C0F0C082C083C007C006C005C004C003C002AC
:205CE700C001C000C0D075D00075C80474012519F519E4351AF51A3026031255CCD0D0D007
:205D070000D001D002D003D004D005D006D007D083D082D0F0D0E0D02732AFCDAECCEFB5D8
:205D2700CDF88F05E4FFFCEE4207EC42058F828D8322AE19AF1AC007C006125D21AC82ADEF
:205D470083D006D007EEB519E9EFB51AE5EEC40354F8FF7E00EDC403CCC40354076CCC5418
:205D670007CC6CCCFDEC4206ED42078E828F832275A7007592407593B075910443E6807523
:0F5D8700CA0075CB0075C804D2AD2285CC82222C
:205D9600AF83E582900599F0EFA3F090059BE4F0A3F0900597E0FEA3E0FF7D10900599E0F6
:205DB600FBA3E0FC339231ECCB25E0CB33FC900599EBF0ECA3F090059BE0FBA3E0CB25E0C1
:205DD600CB33FC90059BEBF0ECA3F030311290059BE0FBA3E0FC90059B74014BF0ECA3F0CD
:205DF60090059BE0FBA3E0FCC3EB9EEC9F401D90059BEBC39EF0EC9FA3F0900599E0FBA399
:1A5E1600E0FC90059974014BF0ECA3F0DD8E900599E0FEA3E08E82F5832295
:205E3000AF82AE83ADF0FC9005A1EFF0EEA3F0EDA3F0ECA3F09005A5E4F09005A1E0FCA3FF
:205E5000E0FDA3E0FEA3E0FF7B0090059DE0F56FA3E0F570A3E0F571A3E0F572235401FA34
:205E70007074C003E56F256FF8E57033F9E57133FAE57233FB90059DE8F0E9A3F0EAA3F0FF
:205E9000EBA3F090059DE0F56FA3E0F570A3E0F571A3E0F572C3EC956FED9570EE9571EFBB
:205EB0009572D0035027E572C313F572E57113F571E57013F570E56F13F56F90059DF0E57F
:205ED00070A3F0E571A3F0E572A3F080090B9005A5EBF0025E5A9005A5E0FF9005A1E0FB4F
:205EF000A3E0FCA3E0FDA3E0FE90059DE0F56FA3E0F570A3E0F571A3E0F572C3EB956FEC43
:205F10009570ED9571EE957240179005A1EBC3956FF0EC9570A3F0ED9571A3F0EE9572A3B3
:205F3000F090059DE0FBA3E0FCA3E0FDA3E0C313FEED13FDEC13FCEB13FB90059DF0ECA35C
:205F5000F0EDA3F0EEA3F08F061FEE708E9005A1E0FCA3E0FDA3E0FEA3E08C828D838EF06E
:015F7000220E
:205F7100AF82AE83ADF0FC9005AAEFF0EEA3F0EDA3F0ECA3F09005A9E0FF7E209005AAE09D
:205F9100FAA3E0FBA3E0FCA3E0FD8F1B751C00751D00751E0090059DE51BF0E51CA3F0E57E
:205FB1001DA3F0E51EA3F08A828B838CF0EDC007C006125E30AA82AB83D006D00774302A05
:205FD100FD9005CEF08D04EC24C650079005CE74072DF01EEE24AEFCE43405FD9005CEE070
:205FF1008C828D83F09005AAE0FAA3E0FBA3E0FCA3E0FD9005D9E51BF0E51CA3F0E51DA355
:20601100F0E51EA3F08A828B838CF0EDC007C006126270AA82AB83ACF0FDD006D0079005C0
:20603100AAEAF0EBA3F0ECA3F0EDA3F09005AAE0F5F0A3E042F0A3E042F0A3E045F06003C5
:20605100025F8D9005A6E0FCA3E0FDA3E0FFEE24AEF582E43405F583E0FB8C828D838FF0E4
:20607100126476A3AC82AD830EBE20E28C828D838FF0E4026476AF82AE83ADF0FC9005D394
:20609100EFF0EEA3F0EDA3F0ECA3F09005D3E0FCA3E0FDA3E0FEA3E0FF30E73F9005D2E02C
:2060B100FBBB0A379005CFE0F9A3E0FAA3E0FB89828A838BF0742D1264769005CF7401297E
:2060D100F0E43AA3F0EBA3F09005D3C3E49CF0E49DA3F0E49EA3F0E49FA3F09005D3E0FC72
:2060F100A3E0FDA3E0FEA3E0FF9005CFE0F9A3E0FAA3E0FB9005D2E0F89005A6E9F0EAA3F4
:13611100F0EBA3F09005A9E8F08C828D838EF0EF025F719A
:20612400900C1BE0FCA3E0FDA3E0FEA3E0FF9005FFECF0EDA3F0EEA3F0EFA3F0904E6D7592
:20614400F0C674411265DEAC82AD83AEF0FF900C1B74392CF074303DA3F0E43EA3F0E43FB4
:20616400A3F0900C1BE0A3E0A3E0FEA3E0FF8E048F0553057F8C828D8322AF83E582900500
:1B618400D7F0EFA3F09005D7E0FEA3E0FF900C1BEEF0EFA3F0E4A3F0A3F022A8
:047A6E000100000013
:20619F00126242BC0003026A42EF60FA30D502B2D1E583B4FF03026A58E582B4FF03026A7F
:2061BF0058258340072482400B026A422483145003026A58F582EA8DF0A4A8F0EA8EF0A4E2
:2061DF0028F8E435F0F9EB8DF0A428E935F0F9E433CA8FF0A429F9EA35F0FAEBF88EF0A40F
:2061FF0029F9EA35F0FAE433FBEC8DF0A429F9EA35F0FAE43BFBE88FF0A42AFAEB35F0FBB7
:20621F00E433CCFD8EF0A42AFAEB35F0FBE43CFCED8FF0A42BFBEC35F0FC20E70312637BD5
:03623F00026A21CF
:20624200AA82AB83A2F73392D1F5826002D2F7ACF0E58124F9F8E6FD08E6FE0886F008E6BF
:0E626200A2F73392D5F5836002D2F7AFF02297
:20627000AF82AE83ADF0FC9005DDEFF0EEA3F0EDA3F0ECA3F09005E1E4F0A3F0A3F0A3F03F
:206290009005D9E0FCA3E0FDA3E0FEA3E0FF756F209005DDE0F8A3E0F9A3E0FAA3E0FB3329
:2062B0009232E828F8E933F9EA33FAEB33FB9005DDE8F0E9A3F0EAA3F0EBA3F09005E1E0A6
:2062D000F8A3E0F9A3E0FAA3E0FBE828F8E933F9EA33FAEB33FB9005E1E8F0E9A3F0EAA39B
:2062F000F0EBA3F030321E9005E1E0F8A3E0F9A3E0FAA3E0FB9005E1740148F0E9A3F0EA52
:20631000A3F0EBA3F09005E1E0F8A3E0F9A3E0FAA3E0FBC3E89CE99DEA9EEB9F40319005B2
:20633000E1E8C39CF0E99DA3F0EA9EA3F0EB9FA3F09005DDE0F8A3E0F9A3E0FAA3E0FB9093
:2063500005DD740148F0E9A3F0EAA3F0EBA3F0D56F0280030262A19005DDE0FCA3E0FDA3E8
:0B637000E0FEA3E08C828D838EF02203
:0604A800E478FFF6D8FD28
:20637B007804EC7011E58224F8500AF582E4C9CACBFCD8EF22EC7820058220E713D5820121
:13639B0022C3E933F9EA33FAEB33FBEC33FCD8EA1582222F
:2063AE00AC82AD839005E6E0FEA3E0FFBE000360121F0F9005E5E08C828D83126476A3DE50
:0863CE00FADFF88C828D8322B6
:2063D600AFF0AE83E5829005EDF0EEA3F0EFA3F09005EDE0F56FA3E0F570A3E0F571AA6F4B
:2063F600AB70AC719005E8E0F8A3E0F9A3E0FF9005EBE0F572A3E0F573AD72AE731572740F
:20641600FFB572021573ED4E6020888289838FF0126B65FEA3A882A9838A828B838CF0EE09
:14643600126476A3AA82AB8380CF856F828570838571F02224
:200486007904E94406601B7A0790746E781B75A006E493F2A308B8000205A0D9F4DAF27509
:0204A600A0FFB5
:20644A00AF83E5829005F0F0EFA3F09005F0E0FEA3E0FFBE30004005EE24C650047F00805F
:0C646A00027F01EF3395E08F82F5832262
